:100000000313831287018501891003178316880162
:1000100089010313831687018501891081138301E8
:10002000640020308400F2010608F000F3000808A4
:10003000F100031D1D28891424287002031C2428A4
:1000400009183320091C29207208850073088700CD
:10005000412871087302031C0800F20AF3007308B8
:10006000031908002928F3010830F5000310F00DEA
:10007000F30D710873020318F300F20DF50B372826
:1000800008008910720E60208000840A72086020C7
:100090008000840A730E60208000840A7308602048
:0400A00080001028A4
:1000C0000F398207303431343234333434343534F8
:1000D0003634373438343934413442344334443498
:0400E0004534463429
:060FFA000A128A11002812
:04400E00FC3FFF3F35
:00000001FF
