:100F42000A128A11A42F0313831287018501031742
:100F52008316880189010313831687018501811392
:100F62008301203084006400F301F4010608031DAC
:100F7200BD2FF400F300D22F0808031DC32FF40085
:100F8200F300D22F06020318CB2F0808F000060840
:100F9200F100CF2F0608F0000808F1000918F52F1C
:100FA200E927740885007308870083138413700887
:100FB20080008417710880008317740880008413EE
:100FC200730880006F3004060319B22F840AB42F0D
:100FD2007108F2007008F400F20BF02F080070079D
:100FE200F4000318F30AEC2F0830F500F10C700836
:0E0FF2000318F307F30CF40CF50BF72FD22FB6
:04400E00FC3FFF3F35
:00000001FF
